:020000040800F2
:10000000A0060020CD0100084B04000843040008AE
:10001000470400087D020008B70C0008000000003B
:10002000000000000000000000000000E9050008DA
:100030008102000800000000D1040008FD0600084D
:10004000E7010008E7010008E7010008E7010008F0
:10005000E7010008E7010008E7010008E7010008E0
:10006000E7010008E7010008E7010008E7010008D0
:10007000E7010008E7010008E7010008E7010008C0
:10008000E7010008E7010008E7010008E7010008B0
:10009000E7010008E7010008E7010008E7010008A0
:1000A000E7010008E7010008E7010008E701000890
:1000B00061070008E7010008E7010008E701000800
:1000C000E7010008E7010008E7010008E701000870
:1000D000E7010008DD090008E7010008090A000837
:1000E000E7010008E7010008E7010008E701000850
:1000F000E7010008E7010008E7010008E701000840
:10010000E7010008E7010008E7010008E70100082F
:10011000E7010008E7010008E7010008E70100081F
:10012000E7010008E7010008E7010008E70100080F
:1001300000F002F800F03AF80AA090E8000C8244BF
:100140008344AAF10107DA4501D100F02FF8AFF29C
:10015000090EBAE80F0013F0010F18BFFB1A43F0A5
:1001600001031847E80B0000080C0000103A24BFF8
:1001700078C878C1FAD8520724BF30C830C144BF0C
:1001800004680C607047000000230024002500264E
:10019000103A28BF78C1FBD8520728BF30C148BFEA
:1001A0000B6070471FB51FBD10B510BD00F033F8D0
:1001B0001146FFF7F7FF00F0A5FD00F051F803B47A
:1001C000FFF7F2FF03BC00F078FD0000094880470C
:1001D00009480047FEE7FEE7FEE7FEE7FEE7FEE729
:1001E000FEE7FEE7FEE7FEE704480549054A064B41
:1001F000704700000107000831010008A00000203E
:10020000A0060020A0020020A00200207047704736
:10021000704770477047754600F02CF8AE460500F1
:100220006946534620F00700854618B020B5FFF711
:10023000DBFFBDE820404FF000064FF000074FF015
:1002400000084FF0000B21F00701AC46ACE8C009F4
:10025000ACE8C009ACE8C009ACE8C0098D467047FD
:1002600010B50446AFF300802046BDE81040FFF70C
:10027000A6BF0000004870473C00002000BFFEE71A
:1002800070472DE9F041024600250026002000239A
:100290000024002791F803C00CF00F0591F803C06B
:1002A0000CF0100CBCF1000F03D091F802C04CEA26
:1002B000050591F800C0BCF1000F31D01468002092
:1002C0002BE04FF0010C0CFA00F3B1F800C00CEA7F
:1002D00003069E4220D183004FF00F0C0CFA03F767
:1002E000BC4305FA03FC4CEA040491F803C0BCF1DA
:1002F000280F06D14FF0010C0CFA00FCC2F814C014
:100300000AE091F803C0BCF1480F05D14FF0010C91
:100310000CFA00FCC2F810C0401C0828D1D31460AD
:10032000B1F800C0BCF1FF0F34DD546800202EE0AE
:1003300000F1080C4FF0010808FA0CF3B1F800C006
:100340000CEA03069E4221D183004FF00F0C0CFAF9
:1003500003F7BC4305FA03FC4CEA040491F803C01C
:10036000BCF1280F05D100F1080C08FA0CF8C2F80E
:10037000148091F803C0BCF1480F07D100F1080CBC
:100380004FF0010808FA0CF8C2F81080401C082849
:10039000CED35460BDE8F081F0B50A4600230024B6
:1003A0000021002500F00046B6F1004F02D11D4E9D
:1003B000F16901E01B4E7168C0F3034583B200F49C
:1003C0004016B6F5401F08D121F07061154E7668D1
:1003D00026F07066134F7E6012E000F48016B6F5CA
:1003E000801F06D1032606FA05F4A14341F070618F
:1003F00006E0460D360103FA06F6B14341F070619E
:1004000022B1460D360103FA06F6314300F00046EC
:10041000B6F1004F02D1034EF16101E0014E71606F
:10042000F0BD0000000001400146886880B27047BE
:100430000246002093680B400BB1012000E0002031
:10044000704700BFFEE700BFFEE7704770B50021B0
:1004500000230F22C47804B3154C246804F4E0642C
:10046000C4F5E064210AC1F10403CA40447804FAE7
:1004700003F184781440214309010E4C0678A155FC
:10048000047804F01F050124AC4005786D11AD001F
:1004900005F1E025C5F8004109E0047804F01F05E6
:1004A0000124AC40044D0678761145F8264070BD15
:1004B0000CED00E000E400E080E100E002490143CF
:1004C000024A1160704700000000FA050CED00E0E0
:1004D0007047000029B1064AD2690243044BDA6131
:1004E00004E0034AD2698243014BDA61704700009D
:1004F0000010024029B1064A92690243044B9A61F6
:1005000004E0034A92698243014B9A6170470000FC
:100510000010024030B500210022002400232D4DA0
:100520006D6805F00C0121B1042905D0082923D1FB
:1005300005E0294D056022E0274D05601FE0254DAF
:100540006D6805F47012234D6D6805F48034022542
:1005500005EB92421CB9214D554305600BE01D4D42
:100560006D6805F400351DB11C4D5543056002E072
:10057000194D5543056002E0174D056000BF00BFEF
:10058000144D6D6805F0F0010909154D6B5C0568A7
:10059000DD4045600F4D6D6805F4E061090A104DBE
:1005A0006B5C4568DD4085600A4D6D6805F46051FF
:1005B000C90A0B4D6B5C4568DD40C560054D6D6833
:1005C00005F44041890B074D6B5CC568B5FBF3F53D
:1005D000056130BD0010024000127A0000093D00A4
:1005E0000000002010000020704710B500F002F855
:1005F00010BD00000CB50020019000903348006849
:1006000040F480303149086000BF3048006800F491
:10061000003000900198401C0190009818B9019892
:10062000B0F5A06FF1D12948006800F4003010B196
:100630000120009001E0002000900098012843D1A3
:100640002348006840F0100021490860084600680F
:1006500020F0030008600846006840F002000860CF
:100660001A4840681949486008464068486008468A
:10067000406840F4806048600846406820F47C1080
:1006800048600846406840F4E81048600846006842
:1006900040F08070086000BF0C48006800F00070F7
:1006A0000028F9D00948406820F003000749486055
:1006B0000846406840F00200486000BF03484068B8
:1006C00000F00C000828F9D10CBD00000010024019
:1006D00000200240042808D14FF0E021096941F0D0
:1006E00004014FF0E022116107E04FF0E0210969B9
:1006F00021F004014FF0E0221161704770470000C3
:1007000010B51348006840F0010011490860084620
:100710004068104908400E494860084600680E4984
:1007200008400B4908600846006820F480200860F3
:100730000846406820F4FE0048604FF41F008860BF
:10074000FFF753FF4FF000600449086010BD000040
:10075000001002400000FFF8FFFFF6FE08ED00E089
:1007600038B50121880700F072F8002855D0002024
:1007700000909DF803002B49097801F03F010843E0
:100780008DF803009DF8010026490988C1F3851101
:1007900008438DF801004FF480512348FFF748FECD
:1007A00005464FF400412048FFF742FE45EA40006D
:1007B0001C49897801F00F0140EA81009DF8001082
:1007C0000843C0B28DF800009DF802001549498821
:1007D000C1F3051108438DF80200002408E01DF85C
:1007E000040040EA8410C0B20DF80400601CC4B2DA
:1007F000042CF4DB00240DE01DF804100B4800F07D
:1008000056FA00BF4021094800F083F90128F9D1C8
:10081000601CC4B2042CEFDB00BF0121880700F08C
:1008200007F838BD140000200008014000480040CF
:10083000CA430282704721B1028842F0010202805D
:1008400004E002884FF6FE731A400280704730B50C
:100850000246002000230024158A05EA0103958939
:1008600005EA010413B10CB1012000E0002030BD05
:100870001AB183890B43838102E083898B4383818F
:1008800070470000002202881D4B98420ED01D4B7D
:1008900098420BD0B0F1804F08D01B4B984205D046
:1008A0001A4B984202D01A4B984204D14FF68F73DC
:1008B0001A404B881A43174B984207D0164B984260
:1008C00004D04FF6FF431A40CB881A4302808B882E
:1008D00083850B8803850A4B98420BD0094B9842BD
:1008E00008D00E4B984205D00D4B984202D00D4BCC
:1008F000984201D10B7A038601238382704700005E
:10090000002C014000340140000400400008004079
:10091000000C004000100040001400400040014066
:10092000004401400048014008B501210D20FFF7B7
:10093000E1FD01210F48FFF72FFD4FF2F030ADF838
:10094000000028208DF8030003208DF8020069467E
:100950000948FFF796FC49F6FF70ADF80000282023
:100960008DF8030003208DF8020069460348FFF765
:1009700088FC08BD00023000000C01400008014066
:100980007FB505460C4601210846FFF7A3FDADF8EB
:100990000850ADF804400020ADF80A00ADF806009C
:1009A00001A94FF08040FFF76DFF0122114690072B
:1009B000FFF75EFF1C208DF8000000208DF801007D
:1009C00001208DF802008DF803006846FFF73EFD18
:1009D00001218807FFF72FFF7FBD000010B540F20F
:1009E0002551074800F0A2F820B1054800F05AF957
:1009F0000449088040F22551014800F06FF810BD0D
:100A0000003801403600002010B540F2255107485B
:100A100000F08CF848B1054800F044F9044908702A
:100A200040F22551014800F059F810BD004800403F
:100A30003800002010B586B0044601218804FFF775
:100A400049FD01210820FFF755FD4FF48060ADF806
:100A5000140003208DF8160018208DF8170005A942
:100A60001C48FFF70EFC4FF40060ADF814000420A2
:100A70008DF8170005A91748FFF703FC0194002023
:100A8000ADF80800ADF80A00ADF80C00ADF81000A4
:100A90000C20ADF80E0001A90F4800F097F80121D5
:100AA0000D4800F02AF8012240F225510A4800F0D2
:100AB00067F827208DF8000003208DF801008DF8DD
:100AC000020001208DF803006846FFF7BFFC06B066
:100AD00010BD0000000C01400048004010B500228D
:100AE000002340F66A14A14200D100BF0A1201247B
:100AF0009440A3B2DC43048010BD21B1828942F44A
:100B00000052828104E082894DF6FF731A4082818F
:100B1000704702460020B1F5007F00D100BF138866
:100B20000B400BB1012000E00020704770B5024679
:100B3000002400230025002040F66A16B14200D1AF
:100B400000BFC1F3421501F01F03012606FA03F3AB
:100B5000012D02D19689334006E0022D02D1168A7A
:100B6000334001E0968A33400C12012606FA04F461
:100B70001688344013B10CB1012000E0002070BD94
:100B8000F0B50346002400260025002040F66A1731
:100B9000B94200D100BF1846C1F3421401F01F064C
:100BA000012707FA06F5012C01D10C3004E0022CD4
:100BB00001D1103000E014301AB107682F430760EC
:100BC00002E00768AF430760F0BD00002DE9F04781
:100BD00086B005460E460024A24600BFA146002767
:100BE000B08900B100BF2F462C8A4CF6FF7004403C
:100BF000F08804432C82AC894EF6F3100440B08890
:100C000031890843718908430443AC81AC8A4FF6AB
:100C1000FF400440B0890443AC8201A8FFF77AFC8E
:100C20001F48874202D1DDF810A001E0DDF80CA0DA
:100C3000A88900F4004040B10AEBCA0000EB0A109A
:100C400031684900B0FBF1F807E00AEBCA0000EB9D
:100C50000A1031688900B0FBF1F86420B8FBF0F0AD
:100C600004012009642101FB1089A88900F40040D7
:100C700040B1322000EBC900B0FBF1F000F00700FA
:100C8000044308E0322000EB09106421B0FBF1F0CE
:100C900000F00F0004432C8106B0BDE8F08700008F
:100CA0000038014001468888C0F308007047C1F34E
:100CB00008028280704700BFFEE700BF7047000057
:100CC00010B56FF00400FFF705FD0A4800680A49F7
:100CD000B0FBF1F0094908700846007800EB4001CC
:100CE000C1EBC0104FF6FF7101EAC0000449088053
:100CF00010BD00001800002000127A002C00002017
:100D00002E000020FFF7DCFF4FF4A060FFF7D6FBBA
:100D10004FF4E130FFF78EFEFFF706FE47214CF25D
:100D20004F30FFF72DFE09E00548FFF77DFB054931
:100D300008800548FFF778FB02494880F4E7000087
:100D40000008014014000020000C01406C0D000858
:100D5000000000203C0000006C010008A80D000805
:100D60003C0000206406000088010008000000002C
:100D7000010203040102030406070809020406082D
:100D80000000000000A24A04000000000000000073
:100D9000010203040607080900000000000000002B
:080DA00000000000000000004B
:0400000508000131BD
:00000001FF
